:0200000280007C
:1000000000300820951B0800911508009115080084
:1000100091150800911508009115080000000000D6
:100020000000000000000000000000009115080022
:1000300091150800000000009115080091150800B6
:1000400091150800911508009115080091150800F8
:1000500091150800911508009115080091150800E8
:10006000911508009115080035170800451708007C
:100070005517080091150800911508009115080002
:1000800091150800911508009115080091150800B8
:1000900091150800911508009115080091150800A8
:1000A0009115080091150800911508009115080098
:1000B00091150800D5220800911508000348044B4B
:1000C000834202D0034B03B118477047A8B308001E
:1000D000A8B3080000000000054806490B1AD90F14
:1000E00001EBA301491002D0034B03B1184770473D
:1000F000A8B30800A8B308000000000010B5064C23
:10010000237843B9FFF7DAFF044B13B10448AFF388
:1001100000800123237010BD5C0D00200000000052
:10012000A8B3080008B5044B1BB104490448AFF359
:100130000080BDE80840CFE700000000600D00200F
:10014000A8B308000022F0B51E4B83B098420446C5
:100150000F46019223D01C4B98420DD01B4B984266
:1001600012D11B4E01AD29462046B0470028FAD1D6
:10017000019B3B7003B0F0BD154E01AD29462046F2
:10018000B0470028FAD1F3E7124B98420FD1104E36
:1001900001AD29462046B0470028FAD1E8E70E4DC8
:1001A00039462046A8470028FAD103B0F0BD0B4BD2
:1001B0009842DFD1064E01AD29462046B0470028BF
:1001C000FAD1D5E700060E40000009400040094082
:1001D00051330800008009407D1E080000C009401E
:1001E0001D4B70B5984204460E4615D01B4B9842E5
:1001F0001AD01B4B98421FD01A4B984204D01A4B6E
:10020000984221D0002070BD184D31462046A847A5
:100210000028FAD1012070BD154D31462046A8476F
:100220000028FAD10120F6E7104D31462046A847B4
:100230000028FAD10120EEE70C4D31462046A847B0
:100240000028FAD10120E6E7084D31462046A847AC
:100250000028FAD1DEE700BF00060E40000009408A
:10026000004009400080094000C009403D330800BB
:100270006D1E080010212DE9F04788B00DEB01003C
:10028000764B9847764F0820B847764C764A4FF41D
:10029000006114604FF4E132744BCDE90221744ADD
:1002A000744D1A60744A754B08201A60744B0193A0
:1002B000B84701A92046734B98472B68724C986841
:1002C0000021A0472B6800215868A04701216F4BEF
:1002D0001970BFF35F8F62B600226D4BDFF8B481F7
:1002E00059711A705A709A70DA701A716A4988478F
:1002F0006A4B4546DFF8A8916A4E04AC0DF1200A1E
:10030000984754F8042B28463146C847A24505F1C2
:100310000805F6D100250920634C88F82050B8471D
:1003200062492920A04761492A20A0475F492B2024
:10033000A0475E492C20A0475C492D20A0475B497F
:100340002E20A04759492F20A04758493020A047C8
:1003500056493920A04755493A20A04753493B20E8
:10036000A04752493C20A04750493D20A0474F4953
:100370003E20A0474D493F20A0474D492620A04799
:100380004A493320A04749493720A04747493420EC
:10039000A04747492720A04744494F20A047444948
:1003A0002820A04741494020A04740494120A0477C
:1003B0003E494220A0473D494320A0473B494420B5
:1003C000A0473A494520A04738494620A047374929
:1003D0004720A04735494820A04734494920A04735
:1003E00032494A20A04731494B20A0472F49542089
:1003F000A0472E495520A0472C495620A0472B49FD
:100400005720A04729495820A04728495920A047EC
:1004100026495A20A04725493520A0472946254A84
:100420002548264B98474FF00C3229462248244B4A
:1004300098474FF0101229461F48224B984741F227
:10044000030229461C48204B9847204B9847204BD5
:100450009847204B9847204B9847FEE79515080092
:10046000B51A080000060E40CC360020C836002021
:10047000E1010800B00300204501080060360020BB
:1004800000D8B805351E08000D360800040300200A
:10049000683600209C010020D11C080019150800B6
:1004A000C93708003CAF0800A51708000100000884
:1004B000010000100004040400000E40611B08004D
:1004C0006D1B0800791B0800851B08002914080013
:1004D0003D0D0800950B0800F108080070B5084BA9
:1004E000084A5C6805201D689047074B074A04F1DD
:1004F000C0441D6014604C20BDE87040044B184798
:10050000D0300020E1130800A8300020A4300020E3
:10051000951608002DE9F0410E4F01203C680E4E63
:100520007D68B04710200D4B984774B107EB040C61
:10053000EC1F0B4DFB1DE41B0CF1070CE21813F82C
:10054000010F296863458854F8D13346BDE8F0416E
:1005500000201847D0300020E1130800951608004D
:100560000003002010B5064A064B04205468984743
:10057000054A10201460054BBDE81040184700BF25
:10058000D0300020E1130800A030002095160800AC
:1005900070B5084B0220D3E90054074B98474C2014
:1005A000064B9847294604F1C040054A054BBDE873
:1005B00070401847D0300020E1130800951608005D
:1005C000AD060800051F080042F2273310B5074AA0
:1005D00014689C4200D910BD4C20054B9847214619
:1005E000BDE81040034A0448044B1847D0300020AF
:1005F00095160800AD060800780D0020051F0800BC
:1006000070B590B969B10F4D0F4A2B680F4C194462
:10061000206812F801CB00F803C001339942F7D1EA
:1006200029600B4B9847042807D0BDE870404FF471
:100630008061084A0448084B1847084B0020984737
:10064000F3E700BFA030002010310020000300209D
:100650001D14080001060800251F0800E11308000A
:100660000D4A5378122B03D0152B01D00020704770
:1006700010B50024094B0A4819680068918109499E
:1006800090601C608847052801D0012010BD2046DD
:10069000054B9847012010BDB0360020A83000203F
:1006A000A43000201D140800E113080000B17047B9
:1006B00010B5054B04469847022800D010BD2046CF
:1006C000BDE81040014B18471D140800E113080055
:1006D0002DE9F04F364A374B14681B6856681B1BD0
:1006E000B34283B003D342F227339C4202D903B012
:1006F000BDE8F08F4C20304B9847002E3ED02F4F56
:100700007B8801339BB20025A4087B803D8047D0C5
:100710004FF00109A3000093294B2A4A1B68D2E934
:10072000004B3344284E0193D2E90283B4460022A1
:1007300083EAC32383EAD4416140A24681EA1324B9
:10074000019B5919087824FA02F3DBB2984202F1AE
:10075000080280EA030E18BFA7F80090202A0CF8C0
:1007600001EB01F10101EDD1009A0435AA424346A3
:1007700006F104060FD0D846D346D7E71349114AED
:1007800008680123106048680C4F50608868C96889
:100790009060D160B7E70B4BC3E902B8C3E9004AE8
:1007A00004220B490B4B0F601A6003B0BDE8F08FB9
:1007B000D0300020C001002095160800AC30002089
:1007C00000030020C0300020780D0020B030002051
:1007D000A4300020A83000202DE9F047214C102043
:1007E0006568214B266898474DB9DFF880C0204FD7
:1007F000083494E80F008CE80F0087E80F00B60873
:100800002ED04FF0000CDFF864901A4C4FEA8608A7
:10081000D9E9000ED9E90262002382EAC22282EA03
:10082000D04A8AEA000A07460CEB05018AEA122040
:1008300020FA03F2D4F800A00833D2B2202B0AF831
:10084000012001F10101F3D10CF1040CC445324641
:1008500002D07646BE46DFE7C9E902E6C9E90007ED
:10086000BDE8F087D030002095160800C030002089
:10087000B03000200003002008B5154A5378103B23
:10088000082B0AD8DFE803F00B0F13171B1F090909
:100890000500104B0120136108BD002008BD0E4B60
:1008A0000120136108BD0D4B0120136108BD0C4BE5
:1008B0000120136108BD0B4B0120136108BD0A4BD9
:1008C0009847012008BD094B0120136108BD00BFF6
:1008D000B0360020C905080091050800650508002C
:1008E000DD04080015050800D9070800D106080036
:1008F00010B5044B04489847BDE810400348044B2A
:10090000184700BF150908006106080079080800AB
:100910003D09080007490A780F2A01D900207047CD
:10092000034610B4501C044C087044F822300120D7
:1009300010BC7047503500201035002007490A7858
:100940000F2A01D900207047034610B4501C044CF4
:10095000087044F82230012010BC70475135002047
:1009600054350020004B184745140800004B184729
:1009700069140800054B1B7803B9704710B5044B88
:100980009847BDE81040034B184700BFC401002042
:10099000B92C08008514080038B50124044D4FF423
:1009A0008061044A044B05482C709847204638BDA6
:1009B000C401002001060800251F08001031002096
:1009C0000022014B1A707047C401002038B50F4B4C
:1009D0000F4AD9880F48402928BF402112789860D3
:1009E00099818AB10C4C551EEDB2531B251F05EBA6
:1009F000830504EB820401E0AC4205D054F8043DC9
:100A000098470028F8D038BD002038BDB036002007
:100A100051350020D03000205435002038B50B4B24
:100A20001A788AB10A4C551EEDB2531B251F05EBEF
:100A3000830504EB820401E0AC4205D054F8043D88
:100A400098470028F8D038BD002038BD5035002028
:100A500010350020044B5A78222A03BF034A012094
:100A60001A610020704700BFB0360020710A0800EC
:100A700010B5224B9B78013B102B0AD8DFE803F01E
:100A80000A161B0909090909090909090909092D92
:100A90003A0010BD3E201A4B98471A4CA047002838
:100AA000FCD0BDE810401020174B18471020BDE8BF
:100AB0001040164B184701220C21154B154898473A
:100AC000154B9847154A53689903FCD4136843F0B3
:100AD000254343F005031360FEE70F4B98470F4A89
:100AE00053689B03FCD4136843F0254343F005038C
:100AF0001360FEE70A4BBDE810401847B0360020EF
:100B0000191A08003D1A080061190800BD190800EB
:100B10004515080000080E40FD2B080000120E408D
:100B20001114080038B5154C6378172B1BD0402BD7
:100B300017D14FF0200C124D124B372293E80300CF
:100B400085F808C085E803000F4B104905F109003E
:100B5000984728460E4BA560984703460120A3817D
:100B600038BD002038BD40F2011500210322044B9E
:100B700001201D809970A360A28138BDB03600208D
:100B80009435002050AF08006938080044AF0800D1
:100B90000D38080010B5044B04489847BDE81040D4
:100BA0000348044B184700BF15090800250B08002F
:100BB000550A08003D090800024A034B508800F01E
:100BC0007F001847B0360020812C0800154B1B68A9
:100BD0001B681A79824222D930B4134C2360B3F8CF
:100BE00002C09C44634517D2002504E01A78012511
:100BF00013449C450CD95A78042AF7D19A7882423A
:100C0000F4D1DA788A42F1D105B12360012001E004
:100C10000020236030BC7047002030BC70470020AB
:100C2000704700BFDC350020E03500202DE9F041A1
:100C30001C4C23787BB300211B4E0546B04750B3B4
:100C4000DFF86880D8F800305B6853F82570FB68DF
:100C5000984723780146F3B12846B0470546D0B1FE
:100C6000134B144E1C68D8F80020237812681C44DB
:100C700053881A44A24206D808E0052B0FD02378E7
:100C80001C44A24202D96378042BF6D17B689847B2
:100C90002846BDE8F08100252846BDE8F081A0780F
:100CA000B047E0E7D9350020CD0B0800DC35002047
:100CB000E0350020D52C0800184B1B785BB32DE9DC
:100CC000F041174B0546984710B3164B164E1C685B
:100CD000164F316823780A681C4453881A44A2428C
:100CE00006D808E0052B0DD023781C44A24202D977
:100CF0006378042BF6D14B6853F82530BDE8F041FA
:100D00001B681847A288E178A078B8470028E0D18E
:100D10000020BDE8F0810020704700BFD9350020D9
:100D2000CD0B0800E0350020DC350020A52F0800A1
:100D3000014B1868704700BFE0350020004B184792
:100D40003D2B0800F8B50C4F3B787BB10B4D2B6861
:100D50001B681B7953B100242046094EB0472B680D
:100D600001341B68E0B21B798342F7D80023054A9F
:100D70003B701380F8BD00BFD9350020DC35002062
:100D80002D0C0800D435002038B50C4B1B789BB1D6
:100D90000B4D2B681A68127972B1002422465B68E9
:100DA000013453F822301B6903B198472B68E2B233
:100DB000196809799142F2D838BD00BFD9350020B1
:100DC000DC35002000232DE9F0478B4C2288C4E954
:100DD0000433B2F5E07FA38100F0D08094F90020C5
:100DE0002378002A0EDB13F0600F79D013F01E0F6A
:100DF00040D003F01F03022B00F0B68000252846E8
:100E0000BDE8F087E588002DF8D013F0600FEDD134
:100E100013F01F0200F06581012A40F0B98062786A
:100E20000A2A24D1012D22D1744A1278FAB1744AC7
:100E3000267917683A681279B24218D900213046EB
:100E4000704B98470546002800F0C5807B6853F832
:100E50002630DB68984702466B4801216B4B0270D5
:100E60009847CCE7012A00F04D81022A6CD013F09C
:100E70001E0FC3D1A388614E022B04BF0123A380A0
:100E80003378002BBAD05E4F94F804803D682B680D
:100E90001B79984540D3227802F01F02022AADD177
:100EA000002BABD00024A046DFF858916B680134CA
:100EB00053F82850EB68984733780146002B9DD0B3
:100EC00040465FFA84F8C847002897D0AB68984737
:100ED000002837D13D682B681B794345E6D88DE75C
:100EE00013F01F02BED16278013A082ABFD801A1CF
:100EF00051F822F0DB0F08006F0E0800B70F080052
:100F00006F0E0800D31008006F0E08006F0E080067
:100F10006F0E08002510080000214046394FB847E1
:100F2000002833D06B6853F82850EB689847337823
:100F30000146002B3FF462AF4046B84730B3AB6880
:100F4000984718B301255AE76278012A00F0F78024
:100F5000032A06D1E28861880A4392B2002A00F08F
:100F6000C18113F01E0F85D0244E3378002B3FF43F
:100F700045AF234F3D682B681B7991E701259E21E2
:100F80002348224B98472846BDE8F087237830E76E
:100F9000022A7FF46CAF6278002AE2D1022DE0D100
:100FA00020791C4B984702461B482946174B0125C0
:100FB0000280984723E7E288002A7FF458AF6288CE
:100FC000022A7FF454AF154B9847054618B1237990
:100FD000002B00F0BC81237808E7E288002A7FF428
:100FE00046AF6588012D7FF442AF0D4A138823F088
:100FF0000203138003E700BFB0360020D93500207C
:10100000DC350020CD0B0800D8350020C92C0800A5
:10101000EC010020252D0800D6350020712C080099
:10102000D4350020E288002A7FF421AF9C4B9847FA
:101030000028D0D0DFF86C92C847DFF86CA2A37804
:10104000002800F02581DAF80820527C9A42C2D3A9
:10105000964E337883B1964F3B681B681B795BB122
:1010600000252846DFF84C82C0473B6801351B68E5
:10107000E8B21B798342F7D800228F4B1A80A378FD
:101080003370002B3FF45EAFC8473278002800F081
:101090003381DAF8103002F10052013A03EBC20357
:1010A0001A68834F12793B60002A3FF44BAF00254A
:1010B000824E2B4605E03A68126812799A427FF612
:1010C00041AF18460021B0470135EBB20028F2D1FC
:1010D00081E7E288002A7FF4CAAE794B01252361BB
:1010E0008DE66278062A40D0082A36D0002A7FF49E
:1010F000BEAE022D7FF4BBAE29466F48714B9847B8
:1011000001257CE662780B2A7FF4B1AEE288002AE2
:101110007FF4ADAE654A1278002A3FF4A8AE257977
:10112000644B28466688984700283FF454AF284609
:10113000624BF1B2984700287FF404AF4BE7E28896
:1011400061880A4392B2002A7FF40BAF20795E4B8C
:10115000984700287FF4F6AE3DE7012D7FF487AE77
:1011600029465248574B984749E661880A0A013A8E
:10117000CDB20E2A3FF63AAE01A151F822F000BFDF
:10118000351208000B12080049120800ED0D080086
:10119000ED0D0800FF110800D5110800ED0D080045
:1011A000ED0D0800ED0D0800ED0D0800ED0D080037
:1011B000ED0D0800ED0D0800BD1108002121434888
:1011C000404B9847E388A2899A427FF6BBAE01253F
:1011D000A38114E6334B9847334B002840F09480AA
:1011E0009A68527CAA427FF6F6AE1A69354B52F8DD
:1011F0003500418898470722A3685A70E2E72A4AD7
:10120000304BD06801789847DCE7264B9847264B4F
:10121000002800F090809A68527CAA427FF6DBAEEC
:101220001A69284B52F83500418898470222A36872
:101230005A70C7E71B4B9847002871D11A4A214BB7
:10124000906801789847BDE7032D3FF6CFADDFE802
:1012500005F01A17140220211D4B1E4E5D18324650
:1012600013F8010BAB4222F8020FF9D14900023109
:101270001848144B31709847A4E71321164BECE73C
:101280001521164BE9E7042115480E4B984799E7BD
:10129000DAF80020527C9A42BFF4DAAE9BE600BF37
:1012A000A92C0800712C080020030020D93500204B
:1012B000DC3500202D0C0800D4350020B90C0800C6
:1012C000B90B0800C92C0800012E0800C801002035
:1012D0009C0100208C020020EC020020D40200209F
:1012E000D00200202079324B98472079314B984723
:1012F00000287FF427AE6EE6DAF8043002F10052DF
:10130000013A03EBC203CBE61A68527CAA427FF68D
:1013100062AE5A68284B52F83500418898476AE710
:1013200010200221254B244D1A689070D170186846
:101330000178A84746E71A68527CAA427FF64BAE6E
:101340005A681D4B52F83500418898476EE71C4E8D
:10135000327892B11B4F3A68126812796AB1994695
:101360001846DFF86480C0473B6809F101091B6833
:101370005FFA89F01B798342F5D80022A3881349CC
:101380001B0A013B0A803270032B3FF624AEDFE8D4
:1013900003F00B0805020E4B236130E50D4B236172
:1013A0002DE50D4B23612AE50C4B236127E500BF9A
:1013B000D1310800592D0800C92C08002003002055
:1013C000D9350020DC3500202D0C0800D435002054
:1013D0009D32080085320800613208003D32080065
:1013E00038B5084B04469847074B1A782AB90125A7
:1013F0001C70064B9847284638BD0025034B98477C
:10140000284638BDE1150800E43500202116080003
:101410000022014B1A707047E4350020014B187808
:10142000704700BFE435002010B51120044CA047E0
:101430001020A0472346BDE810404C20184700BFAD
:101440004D16080010B51120054CA0471020A047EC
:101450004C20A047BDE810405320024B184700BF66
:101460004D1608006D17080010B51120034B984762
:10147000BDE810405320024B184700BF95160800E6
:1014800089170800C0F3090310B50446ABB1B3F5E2
:10149000007F03D0C4F308043CB110BD1120094BF8
:1014A000C4F308049847002CF7D1064C1020A0473D
:1014B0002346BDE810404C2018471120024B9847A6
:1014C000E8E700BF4D1608009516080010B54FF06C
:1014D00060510D4C1120A0474FF060511020A047E3
:1014E0004FF060514C20A0474FF040515320A0478F
:1014F0005320064B9847BDE810404FF000624FF470
:10150000C0510348034B1847A51708008917080066
:10151000000C0E409D1808004FF4004210B5064B19
:10152000064C5A650A20A0470B20A0470C20A04774
:10153000BDE81040024B184700120E40B51A0800D3
:10154000CD14080038B5A1F10E03012B17D9EFF324
:10155000108572B6BFF35F8F00230A4CC9B22370A7
:10156000094B03EA02221143084B41F0B44198476A
:1015700025B901232370BFF35F8F62B638BD4FF0EA
:10158000FF3038BD0403002000FFFF008D00002065
:10159000FEE700BFF0B5042687B004460D460F22D3
:1015A0000E210C480C4F02AB0096B84770B9042DC1
:1015B00026462A46044628BF042225B13046074B5A
:1015C00002A992009847204607B0F0BD102420469B
:1015D00007B0F0BD00080E40010000207D34080077
:1015E0000C4B1A6822B9EFF3108129B10A490A702D
:1015F0001A6801321A60704710B472B6BFF35F8F79
:101600000120064C044A217010701A6801321A60D9
:1016100010BC7047E8350020EC35002004030020A2
:10162000074B1A68013A1A601B6843B9054B1B78CF
:101630002BB10122044B1A70BFF35F8F62B6704763
:10164000E8350020EC350020040300202DE9F041AE
:10165000112305460C4CAB420C4FDFF8348004F1EB
:10166000100605D0B4420AD054F8083FAB42F9D175
:1016700063682846012B04D0B847B442F4D1BDE8D2
:10168000F081C047EEE700BF5CAF08006D170800AF
:10169000891708002DE9F041112305460C4CAB4297
:1016A0000C4FDFF8348004F1100605D0B4420AD0A4
:1016B00054F8083FAB42F9D163682846012B04D0A7
:1016C000B847B442F4D1BDE8F081C047EEE700BFAF
:1016D0005CAF0800891708006D170800F8B5124BB9
:1016E00004460E469847114B05462046984705404C
:1016F00019D00F4C04F160072368B34205D0BC42F7
:1017000011D023691034B342F9D161682942F6D06F
:10171000E368304698476368BC4225EA030502D077
:101720001034002DE8D1F8BD6517080069170800CE
:10173000F03500200A210148014B1847000C0E40EB
:10174000DD1608000B210148014B1847000E0E4022
:10175000DD1608000C210148014B184700100E400F
:10176000DD160800C06C7047806C70470122430989
:1017700003F5001303F2067300F01F005B0202FA88
:1017800000F01863704700BF0122430903F50013FE
:1017900003F2067300F01F005B0202FA00F05863C8
:1017A000704700BF430903F5001301F0F04203F254
:1017B0000673B2F1205F4FEA432335D010B416D838
:1017C000B2F1006F1BD0B2F1805F15D14FF0010C68
:1017D00000F01F000CFA00F25A64186F10431867EB
:1017E00011EA0C005A601BD05A6610BC704701F019
:1017F000E042B2F1405F2FD0002010BC70474FF0A4
:10180000010C00F01F000CFA00F25A64186F1C6FF4
:10181000204020EA0200186711EA0C005A60E3D168
:101820001A66604610BC7047012200F01F0082401B
:10183000C8075A644CBF5A661A6611F00A0F14BFE3
:101840001A625A62880722D4080748BFC3F8842066
:1018500001205A611A607047012200F01F00824087
:1018600001F0605CC1F38004C9075A644CBF5A663A
:101870001A6654B95A65BCF1605F0CBF1A635A63AB
:101880001A611A60012010BC70471A65F3E7C3F8AB
:10189000802001205A611A60704700BF034602F0A1
:1018A000F040B0F1205F29D010B410D8B0F1006F33
:1018B00015D0B0F1805F0FD15964186F08431867D5
:1018C00012F00100596015D0596610BC704702F043
:1018D000E040B0F1405F25D0002010BC7047596453
:1018E000186F1C6F204020EA0100186712F00100F9
:1018F0005960E9D11966012010BC7047D0075964BE
:101900004CBF5966196612F00A0F14BF196259626A
:1019100090071ED4100748BFC3F8841001205961F6
:101920001960704702F06050C2F38004D207596416
:101930004CBF5966196654B95965B0F1605F0CBF68
:101940001963596319611960012010BC704719654A
:10195000F3E7C3F88010012059611960704700BF98
:1019600015490B6B23F0030343F001030B638B6EEC
:101970001B0758BF4FF4006302D504E0013B16D0AB
:101980008A6E1207FAD50C490B6B23F070030343E0
:101990000B63886E10F0080008BF4FF4006302D09C
:1019A00007E0013B03D08A6E1207FAD57047012089
:1019B00070470020704700BF00040E4015490B6BB4
:1019C00023F0700303430B638B6E1B0758BF4FF468
:1019D000006302D504E0013B17D08A6E1007FAD5E8
:1019E0000C490B6B23F0030343F002030B63886E77
:1019F00010F0080008BF4FF4006302D007E0013B7D
:101A000003D08A6E1207FAD5704701207047002074
:101A1000704700BF00040E40074A0302116A9BB2E0
:101A200021F003010B4343F45C1343F00103136201
:101A3000936EDB07FCD5704700040E40024B986E96
:101A400000F00100704700BF00040E40024B986E8A
:101A500000F48030704700BF00040E40084B1B6A42
:101A600030B1074A43F0807343F45C13136270474C
:101A7000034A23F0807343F45C131362704700BF82
:101A800000040E404FF00052014B9A62704700BFB5
:101A900000040E40024B986E00F00200704700BF39
:101AA00000040E40024B986E00F04000704700BFEB
:101AB00000040E401D280AD80123064A834091697C
:101AC000002033EA010101D0136170477047012003
:101AD000704700BF00040E401D280AD80123064AA3
:101AE00083409169002033EA010100D070475361BF
:101AF00070470120704700BF00040E40034BC0F345
:101B000012001A6F10431867704700BF00040E40A0
:101B10002DE9F041A0B9002A90460DDD0C460A4F90
:101B20000A4E8D1821463868336801349847AC4214
:101B3000F8D14046BDE8F08180464046BDE8F081DE
:101B40004FF0FF38F5E700BFCC36002060360020AC
:101B5000024B187880F00100704700BF6436002007
:101B600001EB810100EB81010A67704701EB810104
:101B700000EB81014A67704701EB810100EB8101B5
:101B80008A67704701EB810100EB8101C1F8802079
:101B9000704700BF1749184808B5814209D0174A55
:101BA000904206D2013A121A22F00302144B043278
:101BB00098471448144A904207D2013A121A22F068
:101BC00003020021114B04329847114B114923F0B5
:101BD000604203F1604322F07F02B3F5404F8A6018
:101BE00003D28B6843F000538B600B4B98470B4B31
:101BF0009847FEE7A8B30800000000205C0D002015
:101C00007D3408005C0D002008370020693508008D
:101C10000000080000ED00E0ED3308007502080048
:101C20000C4A034610680C4930B103448B42CCBFC8
:101C30004FF0FF301360704710B4084C23448B42C0
:101C40001460D8BF13602046C8BF4FF0FF3010BCEF
:101C5000704700BF70360020FC3F0820003008208D
:101C60004FF0FF30704700BF4FF4005300204B602F
:101C7000704700BF0120704700207047014608B53B
:101C80000148024B9847FEE774AF0800353408005E
:101C9000704700BF4FF0FF30704700BF10B53E20C7
:101CA000074B9847074CA0470028FCD04FF471021F
:101CB000054B064CDA61A0470028FCD010BD00BFE0
:101CC000191A08003D1A080000040E40A51A080061
:101CD00070B51248124DA8473E20124B9847124C3F
:101CE000A0470028FCD04FF08070104B9847104C54
:101CF000A0470028FCD00F4B98470F4B0F4A104CC1
:101D00009A62A0470028FCD00E4B102098470E4B3B
:101D100098472B46BDE870400048184700D8B805E2
:101D200031010020191A08003D1A08005D1A080048
:101D30004D1A0800851A080000040E40013F0F20CC
:101D4000951A0800BD1908004D1D0800314A136B93
:101D500003F00303012B2CD0023B012B1ED8136A86
:101D6000D90138D52C482D4B03602A4A136B03F058
:101D70000303022B3CD02A4B26490A6B02F0700267
:101D8000702A05D00A6BC2F30212D3400360704779
:101D9000244AA2FB03235B0803607047224B1E48C2
:101DA0005B6A13F0800F14BF4FF400434FF4FA4303
:101DB000E2E7136ADB010BD4126A02F07002102A08
:101DC00021D0164B19491448202A18BF0B46D3E7D7
:101DD000124B1148D0E7154B0F480360136A03F00C
:101DE0007003102B12D0202BBFD10C4B0360BCE72B
:101DF000916A0368C1F30A4101FB0333926AD2B2CC
:101E0000B3FBF2F3B8E70A4B0348B5E7084B0360AE
:101E1000ABE700BF00040E4008030020001BB70022
:101E2000001C4E0EABAAAAAA00120E4000093D00EB
:101E300000127A00AC2303600246D1E90030B3FB04
:101E4000F0F34FF6FE7C1B09581E60450CD830B4E9
:101E500040F20225502413628B6800205360C2F8C0
:101E60002051146030BC704701207047034642691E
:101E7000920746BF0020D961012070474369DB0704
:101E800043BF836900200B7001207047014B187815
:101E9000704700BF74360020024B1B7803B17047B7
:101EA000014B184774360020C1090800084B93F90C
:101EB00000201B78002A03F0600303DB402B05D0D1
:101EC00000207047402BFBD1024B1847024B1847AC
:101ED000B03600201D0A0800CD090800064B10B5D9
:101EE0009847064AC37813700BB1012010BD044B0C
:101EF000BDE81040184700BF310D080074360020BF
:101F00009909080030B58446154683B00B466246F1
:101F10000021034C00958120A04703B030BD00BFD5
:101F2000CD2E080030B58446154683B00B46624678
:101F30000021034C00950220A04703B030BD00BF34
:101F4000CD2E080090F814C003461CF0010F16D0E7
:101F500030B404686FF3000C80F814C06CB1084D05
:101F6000084602F1080149016958090748BF42F0D3
:101F700080029968234630BC184730BC70477047D0
:101F800000400A402DE9F043431E664C03EB430139
:101F900004EBC10191F814C01CF0010F39D00246C6
:101FA000D1E90250A8424FEA430634D02D1AB5F5C4
:101FB000803F4FEA421C47D80CF1402E0EF5202EF0
:101FC000DEF800812F0418F0080F72D0DEF80081CF
:101FD0004FF0080E08F007080EFA08FE0EF1FF3E5B
:101FE0001EEA050F00F09A8091F814E047F02907E7
:101FF0006FF3410E81F814E033E04FF400644FF4C6
:1020000080734948C1F8044103FA02F203691A4394
:102010000261BDE8F0834FEA421C0CF1402101F55A
:102020002021D1F80001000705D5F01804EBC0000D
:10203000007D8707E1D43D4DF01804EBC0002B462E
:10204000BDE8F043002118470CF1402101F52021A3
:10205000D1F800512D0735D521274FF48035D1F81F
:10206000001106EB030E04EBCE0EDEF8041008445C
:102070002F4901EB02114860EFF3108872B6BFF3ED
:102080005F8F4FF000092B4880F80090D1F80C903A
:1020900019F0100F20D0B8F1000F04D10121017008
:1020A000BFF35F8F62B6F11804EBC101C8688860A6
:1020B000B3E7DEF80011C1F30111012925D047F083
:1020C0003507CEE7D1F80051C5F30115012DC3D076
:1020D00035274FF48035C4E74FF000728F6002FA65
:1020E00003F3DEF80C20CEF8105015440E4ACEF85B
:1020F0000C5011690B431361B8F1000F89D1012312
:102100000370BFF35F8F62B683E7DEF8001101F062
:10211000070E082101FA0EF1A942D0D247F021079B
:102120009FE700BF8036002000400A40451F08009E
:1021300000430A40040300202DE9F047EFF3108329
:1021400072B6BFF35F8F00204FF48061594D5A4A39
:102150002870C2F8081123B901232B70BFF35F8FD9
:1021600062B6DFF8588198F80030032B63D0544FE3
:10217000544E3A88B489A41AA4B2002C38D013461D
:10218000DFF844913F2C86BF00224024012289F8C9
:102190000020B268EFF3108672B6BFF35F8F0021A4
:1021A00029704549D1F81C11890539D454B11A4414
:1021B000464B1846013312F801CBD9B2A14280F840
:1021C00000C0F6D34FF480624FF400613B881C449A
:1021D000394B3C80C3F81821C3F81411C3F804210B
:1021E00026B901232B70BFF35F8F62B6BDE8F0877D
:1021F0003749F0880B8813449BB298420B8040D03B
:10220000DFF8C49099F800A0BAF1000F39D17369D2
:10221000002B33D09847002847D101223B88B6E7EE
:1022200026B901232B70BFF35F8F62B6042388F8B1
:102230000030BDE8F087234E336903B19847EFF3D0
:10224000108372B6BFF35F8F00204FF480611A4A8B
:102250002870C2F8081123B901232B70BFF35F8FD8
:1022600062B600234FF40071134AC2F81811C6E990
:102270000433B38188F80030BDE8F08713460122AB
:1022800085E7042388F80030EFF3108172B6BFF3BE
:102290005F8F4FF480420020074B2870C3F818214D
:1022A000C3F804210029A1D19BE73C805346B4899F
:1022B00068E700BF0403002000400A407C3600208D
:1022C00078360020B0360020753600200000182037
:1022D0007A3600202DE9F0419B4B1D2098479B4BFF
:1022E000984728B99A4B5B6913F0020300F0968077
:1022F000974B5A69120700F182805A69560700F11C
:102300008780D3F81C215969CD0521D54FF4804031
:102310004FF40041D404C3F80801C3F8081100F1D8
:10232000AC80500504D5D3F80C31590500F14D822D
:10233000930500F14781970404D54FF40051844B75
:10234000C3F81811160400F16D81540400F1CB801C
:1023500001234FF000754FF480767D4A106903F138
:10236000FF3E05FA0EF10842DFB203D05069014288
:1023700040F0CE80116906FA03F0014202EB4314EB
:1023800017D0D4F80C11A44611F4006F05D0D4F87E
:102390001C1111F4006100F03583DCF80C114F03BF
:1023A00007D5DCF81C1111F4402FC1F3814400F073
:1023B000E980022B39D166494C6914F0100440F0D1
:1023C0007E810A69900735D54A69920732D5202265
:1023D0008A610A691D2022F002020A610A695D4DC4
:1023E00042F020020A618B61A8475B4B98475B4A29
:1023F0001378002B40F0BF820023137013E00822F3
:102400009A615B69DF0712D5BDE8F041544B18476C
:1024100004219961534ABDE8F041104772B6BFF3F9
:102420005F8F514A1370BDE8F081022396E74D4B50
:102430009847E9E7464B5B699B06F4D5474A137812
:10244000002B00F07982022401252020404B1570DA
:102450009C6198611A69454922F020021A611A6943
:1024600022431A611A6942F008021A611A6942F09D
:1024700004021A61BDE8F04108473D4D2B7803B3D3
:102480003C4C236903B19847EFF3108272B6BFF357
:102490005F8F00214FF48060334B19702C49C1F8D5
:1024A000080122B901221A70BFF35F8F62B60023C0
:1024B0004FF40071264AC2F81811C4E90433A3810D
:1024C0002B70234AD2F81C31C3F30A53082B00F0B7
:1024D000BC80052020214FF480532870C2F81411CD
:1024E000C2F818319FE74FF48043194AC2F81831F7
:1024F000D2F81C3113F4007395D11D4801780129DD
:1025000000F04D8204298ED12023C2F814318AE7CD
:10251000194800EB0313D868C00784D4106920EA77
:1025200001011161DB681B0C08D0144A0EEB4E0E42
:1025300002EBCE02D168CB1AC2E902333846BDE8BD
:10254000F0410F4B184700BFB51A0800511B080097
:1025500000400A40D91A08006509080076360020B4
:1025600075090800890D0800040300206D090800A2
:102570007C360020B036002000430A408036002020
:10258000851F08004FF4802320254021CCF8083116
:1025900013690EEB4E0E23EA0000B34B106103EB00
:1025A000CE0E9EF8143064F382038EF81430DCF8FB
:1025B000083123F00203CCF80831CCF81451CCF8E0
:1025C000181130E7A94D2B78012B00F00281022B66
:1025D00000F03781042B00F0348105212022A44B28
:1025E000A44C2970C3F81421EFF3108272B6BFF324
:1025F0005F8F00214FF480609F4B19709C49C1F898
:10260000080122B901221A70BFF35F8F62B600235E
:102610004FF40071964AC2F81811C4E90433A3813B
:102620002B7000E74FF40042914BC3F81821D3F808
:102630001C2155053FF5F7AE8C4A1278032A7FF42A
:10264000F2AE2022C3F81421EDE68C4A8C4B8D4863
:10265000194601330978834202F8011FF8D18A4BE9
:102660009847002800F0F4804FF48051804B814A55
:10267000C3F8181192F900100029C0F27181D288B4
:10268000002A00F0AD81002201244FF480417F48F0
:102690002C7002807E480280C3F81811EFF3108579
:1026A00072B6BFF35F8F74480270C3F80411002D37
:1026B0007FF4B9AE0470BFF35F8F62B6B3E6102249
:1026C000694C237D8A6113F001020DD025686FF3F8
:1026D0000003237545B1D1F82031012013F0080F14
:1026E00018BF8122A168A84794F82C30DD0710D5C7
:1026F000A5696FF3000384F82C3055B15C4B0120C1
:10270000D3F84031216A13F0080F14BF822202224D
:10271000A847604B98470120554B1A6822F07F026A
:102720001A601A6842F080021A60D3F8002122F47D
:102730007F7222F0030242F04302C3F80021C3F883
:102740000401EFF3108472B6BFF35F8F4FF4805231
:10275000002549490D70C3F804214FF40072C3F8F5
:1027600004211A6942F480721A611CB90870BFF31F
:102770005F8F62B6EFF3108372B6BFF35F8F0024F2
:102780004FF480603A4A0C70C2F8080123B9012363
:102790000B70BFF35F8F62B600224FF40074344BAE
:1027A000344832490261C3F818410A70196942611C
:1027B00041F0080119611969828141F00401196130
:1027C0001A6942F002021A612DE6334BBDE8F0416E
:1027D0001847274B2E4FD3F81C61264C3B88B4F882
:1027E0000CC0C6F30A569A199445ACBF1FFA82FC76
:1027F000ACEB0306A268B8BFB6B21A44002E00F0D4
:1028000012811F4B184601330078D9B2B14202F849
:10281000010BF7D3402EA7F800C067D06369A4F876
:102820000CC0002B3AD09847002837D10520202132
:102830004FF400720E4B2870C3F81411C3F818211E
:10284000F1E50C4C2369002B3FF4CEAE9847CBE664
:10285000052020214FF48052054B2870C3F8141135
:10286000C3F81821DFE500BF803600207C36002049
:1028700000400A40B036002004030020AF3600209C
:102880000000182008001820C50D08007A36002026
:1028900078360020450D0800392108004FF40071FA
:1028A00003226A4BC3F818112A70EFF3108472B632
:1028B000BFF35F8F002566484FF4806105704FF4C9
:1028C00000424FF40065C3F81811C3F81451C3F85F
:1028D0000411C3F81821C3F80421002C7FF4A3AD20
:1028E00001230370BFF35F8F62B69CE5594EE28807
:1028F000338863449A4291DDA389634500F0968052
:102900004FF400714FF48042504BC3F81811C3F8D4
:102910001821EFF3108072B6BFF35F8F00244C498B
:102920000C70C3F8042100287FF47DAD01230B70E7
:10293000BFF35F8F62B676E5EFF3108472B6BFF334
:102940005F8F4348444903708B7801338B70002CB0
:102950007FF479AD01230370BFF35F8F62B672E538
:10296000002302213B4C3D482380038029703C4AD0
:10297000BDE8F0411047EFF3108572B6BFF35F8FEB
:102980003348354904708B78013B8B70002D7FF400
:1029900033AD01230370BFF35F8F62B62CE50324D0
:1029A0000470EFF3108572B6BFF35F8F284C4FF4BD
:1029B000806023704FF400664FF40043C2F81801A2
:1029C000C2F81461C2F80401C2F81831C2F8043127
:1029D000002D7FF428AD2170BFF35F8F62B622E532
:1029E00003212970EFF3108472B6BFF35F8F4FF4A9
:1029F000806117484FF4006502704FF40042C3F83D
:102A0000181162E74FF40063164D1748C4F80831F7
:102A10000EEB4E0EC4F814313A462B4600EBCE00B6
:102A2000BDE8F0411847A7F800C0F7E66369002B3E
:102A30003FF4FCAE984700283FF4F8AE00223388FC
:102A400039883A800B4433805AE700BF00400A407F
:102A5000040300207A3600206836002078360020F3
:102A600039210800451F0800803600202DE9F0417B
:102A7000EFF3108672B6BFF35F8F0021294B2A4C0B
:102A80001A782170002A3BD00125284A1D201D708C
:102A90004FF00808904702274FF0040E4FF0100C3B
:102AA0002021234B1D201A6842F400621A601A6824
:102AB00022F400721A601A6942F010021A611A694F
:102AC00042F002021A611A6942F020021A611A6980
:102AD00042F008021A611A6942F004021A61C3F84E
:102AE0001880144AC3F818E0C3F818C09F619961B0
:102AF00090471EB92570BFF35F8F62B6BDE8F081C5
:102B0000EFF3108072B6BFF35F8F0B4922708A78A3
:102B100001328A700028B7D101222270BFF35F8F83
:102B200062B6B1E77636002004030020B51A08002B
:102B300000400A40D91A080068360020F8B5254B35
:102B40009847254B1D209847EFF3108672B6BFF3C8
:102B50005F8F00244FF0500E4FF0005C1F4A204D55
:102B6000117D204B21F00501117592F82C102C706D
:102B700021F0050182F82C101A681B4F42F4807274
:102B80001A6087F81DE3C7F800C0D3F8E0204FF4BF
:102B9000802022F00302C3F8E020144B9847144B26
:102BA0001C70EFF3108172B6BFF35F8F114A2C7067
:102BB000D3780133D37021B901232B70BFF35F8F1A
:102BC00062B60D4B984726B901232B70BFF35F8F78
:102BD00062B6F8BD9D1C0800B51A080080360020BA
:102BE0000403002000400A4000E100E0FD1A080054
:102BF00076360020683600206D2A080010B5164B86
:102C00001D209847154B1D201A68154942F4007283
:102C10001A601A6822F400621A608847114B1A7809
:102C200012B900221A7010BDEFF3108472B6BFF310
:102C30005F8F4FF0000C0C490C488A78013A8A707B
:102C400080F800C0002CECD101220270BFF35F8F2E
:102C500062B600221A7010BDB51A080000400A4082
:102C6000D91A0800763600206836002004030020B8
:102C7000024B586900F00100704700BF00400A4055
:102C8000084B00F07F001A6822F080021A601A6870
:102C900022F07F0202431A601A6842F080021A6032
:102CA000704700BF00400A40024B186800F07F00E8
:102CB000704700BF00400A40024B5868C0F3CA008A
:102CC000704700BF00400A40014B986099817047EF
:102CD000B036002000F00F02022A00D9704701210F
:102CE00038B5530103F1402505F520252B46541E28
:102CF000C5F80811D5F8005104EB4400074C25F045
:102D0000C00504EBC004C3F800512046044B9847AB
:102D1000237D6FF38203237538BD00BF803600200A
:102D2000451F080000F00F00430103F1402303F5A5
:102D30002023D3F81C319B0609D4064B013800EB45
:102D4000400003EBC000007DC0F38000704701200D
:102D5000704700BF8036002000F00F03022B2CD8F4
:102D600030B5254D590105EB431EDEF81C219206B6
:102D700021D4224C5A1E02EB420204EBC20C9CF8F6
:102D8000144014F0040216D1E40718D4020618D433
:102D90004FF40055202401F1402303F52023D3F8FC
:102DA0000821012022F00202C3F80821C3F81851BB
:102DB000C3F8144130BD012030BD002070471046DB
:102DC00030BDDEF81C2112F4402FE1D04FF48024F6
:102DD0004FF480729CF81410012041F004018CF82B
:102DE000141003F1080105EB41114C60296902FA46
:102DF00003F30B432B6130BD00400A4080360020B6
:102E000000F00F0002285AD870B500F1FF3C2D4C9D
:102E10000CEB4C0104EBC1010B7D4FEA4C025D074A
:102E200026D54FF480264FF4807E0B7D0EFA00FEEF
:102E30006FF382030B752449430101EB4015C5F87C
:102E40000861086920EA0E000861D5F81C118D069A
:102E500017D402EB0C0304EBC302117DDB00C8079F
:102E600004D56FF30001E35811759847012070BD38
:102E7000430103F1402101F52021D1F81C118906FD
:102E8000F4D503F1402101F52021D1F81C0186047D
:102E900006D54FF40050C1F818014020C1F81801C0
:102EA000202003F1402101F520210B46C1F8180133
:102EB000D1F8041141F00201C3F80411C9E7002060
:102EC000704700BF8036002000400A4000F00F002D
:102ED000022857D82DE9F0414FEA401C0CF1402C54
:102EE0000CF5202CDCF80C41E50748D5DCF81C413A
:102EF000A40644D4451E284E05EB450C06EBCC0C2D
:102F00009CF814406F0014F0040E38D1EFF31084D5
:102F100072B6BFF35F8FDFF8848088F800E09CF81A
:102F200014E01EF0010F29D19CF814E04EF0010EC0
:102F30008CF814E02CB9012488F80040BFF35F8FAF
:102F400062B64FF0000CDDF818E07C1946F834E06A
:102F500006EBC404C4E90123C4E903CC11B9B3FAF4
:102F600083F149097B1906EBC3031A7D61F3410222
:102F70001A750B4988470120BDE8F08124B1002073
:102F8000BDE8F08100207047012388F80030BFF3CE
:102F90005F8F62B62046F3E78036002004030020EE
:102FA000851F08002DE9F04F00F00F04022C85B0BA
:102FB00000F2D480650105F1402606F52026D6F8FA
:102FC0000C7117F0010740F0C98001F0030CBCF14F
:102FD000010F00F0C780ACF1020CBCF1010F00F250
:102FE000BD8012F4C05E40F0B980F44605F1402681
:102FF00006F52026D6F8003110F0800F18BF0827FC
:10300000090123F47F73B2F5806F01F0300023F0E3
:10301000030380F0BA80082A38BF08225200013A20
:10302000B2FA82F2C2F11C02BEF1000F01D040EAF6
:103030000C2003433B43134343F04003C6F80031E5
:10304000D6F80031002B80F289804FF0010C02236A
:1030500000255C4FC6F804C107EB4310D0F80C11F3
:103060005E1EC9074FEA431214D502F1402202F551
:103070002022D2F800115B00C0F808C1C1F3811111
:1030800001FA03F3D2F800112B4321F0C0019DB2E5
:10309000C2F80011F3B29C42DED94B4F04EB440658
:1030A000E0B2864607EBC60607E001345FFA84FE0D
:1030B000BEF1020F06F1180669D804F1FF3862006C
:1030C00008EB480C45FA02F207EBCC0C4FEA480338
:1030D00012F00302F3460CF110090393E5D06301EB
:1030E00003F1402303F52023D3F800119CF81400CA
:1030F00021F0C00141EA8212C3F800210122824678
:10310000C3F80421D3F800216FF3000A002A00F06D
:10311000010089F804A03FDAD3F8042142F002024A
:10312000C3F804210028C0D056E9033256F8101C19
:1031300056F814CC11449A1A46F80C2CCB1A624457
:1031400099F8041056F818CC7046CDF800C0C1F3B9
:103150004001DFF878C0E0470028A6D1002005B084
:10316000BDE8F08F002C3FF43CAF02F4C053B3F540
:10317000006F0ED0B3F5805F08BF4FF0030C22F450
:10318000C0524FF0010E92B230E707224CE7012007
:10319000E5E74FF0020CF2E7DCF80030002BDDD061
:1031A000084A08346401125901201207039A48BFE3
:1031B0004EF0800B424407EBC207F9685A46984725
:1031C000CCE700BF00400A4080360020CD2E08002A
:1031D0000021174B00F00F0203EB0213000610B49E
:1031E00099600AD4134C1448531E03EB430300EBBD
:1031F000C3000121234610BC1847530103F14023AB
:1032000003F52023D3F81C1111F4402FEAD04FF41A
:10321000007403F58A7CCCF80040D3F81C118905B2
:10322000FBD4D3F81C1111F4402FF4D1DAE700BF1E
:1032300000430A40451F080080360020074AD2F8A4
:10324000E03023F0030343F00203C2F8E030D2F889
:10325000E03043F00403C2F8E030704700400A4019
:10326000074AD2F8E03023F0030343F00203C2F828
:10327000E030D2F8E03043F00803C2F8E0307047A5
:1032800000400A40044AD2F8E03023F0030343F040
:103290000203C2F8E030704700400A402DE9F043D5
:1032A0008FB06E464FF00109EC46224FDFF8888060
:1032B0000FCF0FC60FCF0FC60FCF0FC697E8030073
:1032C00046F8040B3170C8F80891D8F80031CCF1F9
:1032D000005423F47F7323F0030343F06B03C8F817
:1032E0000031C8F80491D8F8E0304FF0000E23F018
:1032F000030343F00203C8F8E030D8F8E0300DAD26
:1033000043F0100304F5C014C8F8E03001E01CF8E5
:1033100001EFAC4504F80CE0F9D14FF480614FF4B3
:103320000062054BC3F81811C3F814210FB0BDE8B3
:10333000F08300BF90AF080000400A400346426996
:10334000920743BFC1F308010020D96101207047F3
:103350004369DB0705D583690020C3F308030B60CD
:1033600070470120704700BF013802281AD8DAB12F
:103370002DE9F0410D4614460C4FDFF83480561C01
:1033800001E0013C0BD03868D8F8003015F8011B7B
:1033900098470028A6EB0402F3DA4FF0FF321046FC
:1033A000BDE8F0814FF0FF3210467047CC36002068
:1033B000C8360020002301461A46184602F0E2BB38
:1033C00038B5084B084D5B1B9C1007D0043B1D44CF
:1033D000013C55F804399847002CF9D1BDE8384034
:1033E00007F0D6BFA0B308009CB3080070B50D4E1F
:1033F0000D4D761BB61006D0002455F8043B013461
:103400009847A642F9D1094E094D07F0B7FF761B40
:10341000B61006D0002455F8043B01349847A64264
:10342000F9D170BD88B3080088B3080090B30800D4
:1034300088B308000FB400B5074A83B004AB106826
:1034400053F8042B8168019301F0D4FC03B05DF8BC
:1034500004EB04B0704700BFB00300200EB400B509
:1034600082B003AB53F8042B8168019301F0C2FCD6
:1034700002B05DF804EB03B0704700BF844641EA38
:10348000000313F0030349D1403A23D30B680360D0
:103490004B6843608B688360CB68C3600B690361D2
:1034A0004B6943618B698361CB69C3610B6A0362BA
:1034B0004B6A43628B6A8362CB6AC3620B6B0363A2
:1034C0004B6B43638B6B8363CB6BC3634030403187
:1034D000403ADBD230320BD30B6803604B68436059
:1034E0008B688360CB68C36010301031103AF3D220
:1034F0000C3205D351F8043B40F8043B043AF9D2AE
:10350000043208D0D2071CBF11F8013B00F8013B80
:1035100001D30B8803806046704700BF082A13D38D
:103520008B07B1D010F00303AED0C3F10403D21A5D
:10353000DB071CBF11F8013B00F8013BA4D331F8B5
:10354000023B20F8023B9FE7043AD9D3013A11F835
:10355000013B00F8013BF9D20B7803704B784370C4
:103560008B78837060467047830730B548D0541E0F
:10357000002A3FD00346CAB201E0013C3AD303F827
:10358000012B9D07F9D1032C2DD9CDB245EA052594
:103590000F2C45EA054536D9A4F1100222F00F0C94
:1035A00003F1200EE6444FEA121C03F1100242E937
:1035B000045542E9025510327245F8D10CF101026E
:1035C00014F00C0F03EB021204F00F0C13D0ACF14B
:1035D000040323F003030433134442F8045B9342CF
:1035E000FBD10CF003042CB1CAB21C4403F8012B2C
:1035F0009C42FBD130BD64461346002CF4D1F9E760
:1036000003461446BFE71A46A446E0E700294FF4F4
:1036100080630CBF0222002200F000B82DE9F043C5
:10362000594C0E46D4F80080174604461D4683B018
:10363000B8F1000F03D0D8F83830002B66D0022F35
:1036400005D0012F00F28D80002DC0F28A80214626
:10365000404603F061FB216B41B104F14003994204
:1036600002D0404603F072FD002323630023B4F927
:103670000CC0A3611CF0800F636050D12CF44A6C25
:103680002CF0030C022FA4F80CC056D001AB21463D
:1036900040466A4604F0D6F8A3891843A08115B3C2
:1036A00016B3D8F838306BB3009BC4E90465AB425D
:1036B000B4F90C3026601CBF43F40063A381012FD2
:1036C00004BF43F00103A38198B213F0080321D093
:1036D00010F0010041D0002210466D42A561A260A9
:1036E00003B0BDE8F083009D284604F0DBF80646F1
:1036F000002839D0A38943F08003A381D8F838305B
:10370000002BD1D1404603F02FFCCDE7404603F01B
:103710002BFC94E71846A36003B0BDE8F083404655
:10372000216903F013FDB4F90CC0022F2CF44A6C8C
:103730002CF0030CA4F80CC0A8D100200021012219
:1037400004F143034CF0020CA4F80CC02360236185
:10375000A160626103B0BDE8F083A56003B0BDE87D
:10376000F0834FF0FF30D7E7DDF80090A94504D093
:10377000484604F097F8064620B94FF0FF30B4F9F8
:103780000CC0DBE74D46B5E7B00300200CB430B504
:103790000C466FF000459DB00A4A20AB059253F8E5
:1037A000042B02A9CDE9013407950495069400F095
:1037B0008FF80022029B1A701DB0BDE8304002B0A5
:1037C000704700BF0802FFFF0EB430B504466FF02B
:1037D00000459CB00B4A1FAB0B49059253F8042BD4
:1037E000086802A9CDE9013407950495069400F014
:1037F0006FF80022029B1A701CB0BDE8304003B085
:10380000704700BF0802FFFFB003002020F0030153
:1038100010F00300C0F1000051F8043B00F1040C6B
:103820004FEACC0C6FF000021CBF22FA0CF21343DB
:103830004FF0010C4CEA0C2C4CEA0C4CA3EB0C02A4
:1038400022EA030212EACC1204BF51F8043B04300E
:10385000F4D0C2F1000102EA0102B2FA82F2C2F12E
:103860001F0200EBD200704730B540EA0104A30705
:1038700022D1032A20D90B468446194653F8045B0B
:10388000A5F1013424EA050414F0803F15D1043A6F
:10389000032A19464CF8045BEFD801F1FF3E52B100
:1038A00063461EF8011F541E03F8011B41B1224656
:1038B0009C46002AF4D130BD844601F1FF3EEEE77C
:1038C0006244002CF7D003F8011B9342FBD130BDBA
:1038D0002DE9F04FBFB088469146CDE90D0303F0C6
:1038E00039FF036818461593FFF790FFB8F80C30BE
:1038F0001490180604D5D8F81030002B00F0D086AC
:1039000000232EAA19469246CDE922332192129322
:1039100000220023CDE91023139116910A9199F802
:103920000030002B00F080814C4604E014F8013F89
:10393000002B00F0C780252BF8D1B4EB090540F02F
:10394000C5802378002B00F06F8100234FF0FF32F9
:1039500018469B466578099204F101098DF8673095
:103960000B9309F10109A5F12002582A00F2D58034
:10397000DFE812F04C02D300D3005202D300D30090
:10398000D300D300D300D30000024702D3000A02C1
:103990000F02D30042025900590059005900590042
:1039A0005900590059005900D300D300D300D30067
:1039B000D300D300D300D300D300D3002902640185
:1039C000D3006401D300D300D300D3005702D30047
:1039D000D3007900D300D300D300D300D300680014
:1039E000D300D3006A02D300D300D300D300D300A6
:1039F000D300D300D300D300D3005C02C401640120
:103A0000640164018B02C401D300D3000003D3001E
:103A1000EA027B00CE02C902D300A702D3006A00EB
:103A2000D300D30090020021A5F1300219F8015B08
:103A300001EB810102EB4101A5F13002092AF5D920
:103A40000B9190E74BF0100B1BF0200100F0488128
:103A50000E9B073323F007031A4652F8080B5968E8
:103A60000E9201230FE04BF0100B1BF0200100F031
:103A70002A810E9B073323F007031A465968002357
:103A800052F8080B0E9200248DF86740099A561CD4
:103A900000F07F822BF08006079650EA010640F086
:103AA0007682002A40F0FE82002B40F007851BF052
:103AB00001030C9300F0918530230DF1B7068DF8CA
:103AC000B7308BE2B4EB090500F0AE80239BCAE966
:103AD00000952B442393229B0133072B229305DC73
:103AE0000AF1080A0A9B2B440A932AE741460D98DB
:103AF00021AA05F0CFFA18B90DF1B80AF2E7B046DD
:103B0000B8F80C3013F0400F0A9B18BF4FF0FF338A
:103B10000A930A983FB0BDE8F08F002B40F0CF87A2
:103B2000002D00F0818000238DF8673001238DF88F
:103B30009050089324AE0C930023CDF81CB0099349
:103B40000F93079B13F0020302D0089A02320892E7
:103B5000079A12F0840B05D10B9A0899571A002F77
:103B600000F39583239C9DF8672082B10122CAF857
:103B70000420229A013401320DF16701072A2394AF
:103B80002292CAF8001000F3DA830AF1080A7BB126
:103B90000223CAF80430229B023401331AAA072BED
:103BA00023942293CAF8002000F3BD830AF1080A87
:103BB000BBF1800F00F09282099B0C9AA3EB020BE1
:103BC000BBF1000F00F3CD82079BDF0500F10F82F0
:103BD0000C9BCAF800601C44CAF80430229B239452
:103BE0000133072B229300F346830AF1080A079B4F
:103BF0005B0705D50B9B089A9D1A002D00F3AD833A
:103C0000DDE90A3208998A42ACBF9B185B180A9317
:103C1000002C40F0E1820023229399F800300DF14E
:103C2000B80A002B7FF480AE239B002B3FF468AFD3
:103C300041460D9821AA05F02DFA61E7002B40F0CE
:103C4000EA870E9B073323F00702F2E80234CDE93E
:103C50001034DDE9103424F000441E4618460E925C
:103C600021464FF0FF32B34B06F0A6FF002840F08C
:103C7000B684304621464FF0FF32AE4B06F07EFF51
:103C8000002840F0AC84DDE910010022002306F09A
:103C90006BFF002840F0EB869DF86740032200216F
:103CA0002BF08003A44E0793A44BCDE90821472DA8
:103CB000C8BF1E460C920F91002C3FF442AF089BE8
:103CC000013308933DE71BF0100348D11BF040017E
:103CD00045D00E9A194652F8040B0E9280B2D2E6E5
:103CE0001BF010030E9A40D11BF040013DD052F85A
:103CF000040B19460E92012380B2C4E6002B40F05B
:103D000086871BF0200F0E9B66D0073323F0070336
:103D10001A465B6852F8080B19460E92002BC0F247
:103D20003384099B013300F070852BF080030793E7
:103D300050EA01039DF8674000F0BC83DDF81CB039
:103D40000A2871F1000380F00185012330308DF8DD
:103D5000B700CDF81CB00C930DF1B7063EE10E9BF9
:103D600053F8040B0E930B468DE652F8040B012317
:103D70000E9288E60E9A52F8041B00290B910E92BF
:103D800047DA0B9A52420B9299F800504BF0040B11
:103D9000E7E5494611F8015B2A2D00F0C187A5F13E
:103DA0003002092A894698BF002100F24F8719F88E
:103DB000015B01EB810102EB4101A5F13002092A0F
:103DC000F5D90991CFE5002B40F01A874BF0100B85
:103DD0001BF0200F0E9B98D153F8040B1BF0100F13
:103DE0000E9340F0CC831BF0400F00F0C88340F3EB
:103DF000C0310B4600B291E799F800504BF0800BB0
:103E0000AFE501232B2099F80050AAE5002800F027
:103E10002B8499F80050A4E599F800504BF0010B61
:103E20009FE599F800504BF0080B9AE5002201211C
:103E30000E9B8DF8672053F8042B08918DF8902085
:103E40000E9324AE0C9177E6002B40F0E8863C4BB5
:103E50001BF02001139325D00E9B073323F007039B
:103E6000596853F8080B0E931BF0010F0BD050EA62
:103E7000010308D030238DF869508DF868304BF07D
:103E8000020B0223FFE50223FDE599F800504BF0F9
:103E9000400B66E5002B40F0AB862A4B1BF020015F
:103EA0001393D9D11BF0100340F064831BF0400141
:103EB00000F060830E9A194652F8040B0E9280B2FD
:103EC000D2E700270E9C099B54F8046B8DF86770AD
:103ED000002E00F0D3845A1C00F01A841A4639468A
:103EE000304603F0B5FF002800F07686831B0C9364
:103EF00023EAE3730E9409979DF86740CDF81CB050
:103F000008930F97D8E699F800504BF0200B28E55E
:103F1000302278250E9B8DF8682053F8040B094A4F
:103F20000E93002102234BF0020B8DF8695013927F
:103F3000A9E500BFFFFFEF7FCCAF0800D0AF0800BE
:103F4000F0AF0800DCAF0800002B40F055861BF0F6
:103F5000200F40F08F831BF0100F40F0E9831BF01F
:103F6000400F00F0E5830E9B0A9953F8042B118053
:103F70000E93D4E499F800506C2D03BF99F80150CA
:103F80004BF0200B09F101094BF0100BE9E4DDF8CF
:103F90001CB0012B3FF4D4AE022B00F08B802EAE70
:103FA00000F00703C00840EA4170C908303350EA06
:103FB0000107324606F8013DF2D11BF0010F00F077
:103FC0008780302B00F084803023023A06F8013CD1
:103FD00016462EAB9B1ACDF81CB00C93099B0C9A7D
:103FE0009342B8BF1346089300230F9364E6652DF0
:103FF00040F3FB80DDE910010022002306F0AAFD5A
:10400000002800F0E4810123CAF80430229BA84A6A
:1040100001330134072B23942293CAF8002000F3C4
:1040200006840AF1080A1B9B129A934203DB079B42
:10403000D8077FF5DCAD149B159A1C44CAE9002310
:10404000229B23940133072B229300F30A840AF165
:10405000080A129B5D1E002D7FF7C9AD102D40F39D
:10406000D8831026229B934FDDF834B005E00AF187
:10407000080A103D102D40F3CE8301331034072B76
:10408000CAE90076CDE92234F1DD4146584621AA3D
:1040900005F000F800287FF433ADDDE922340DF19E
:1040A000B80AE6E7012B00F05B85022BDDF81CB0B7
:1040B0007FF475AF139A2EAE00F00F03D35C0009A6
:1040C00040EA0170090906F8013D50EA0103F3D105
:1040D0002EAB9B1BCDF81CB00C937FE70B9B089A73
:1040E000A3EB020BBBF1000F7FF766ADBBF1100F26
:1040F00040F3B38521461023229A6E4F0D9C06E0B3
:10410000ABF1100BBBF1100F0AF1080A1ADD0132F6
:104110001031072ACAE90073CDE92221F0DD4146BA
:10412000204621AA04F0B6FF00287FF4E9ACDDE9BF
:104130002221ABF1100BBBF1100F4FF010030DF16A
:10414000B80AE4DC0C4601325C44072ACDE922249B
:10415000CAF80070CAF804B000F376830AF1080ABE
:104160002AE5BBF1100F40F36D8421461023229AFB
:10417000504F0D9C06E0ABF1100BBBF1100F0AF194
:10418000080A1ADD01321031072ACAE90073CDE9A5
:104190002221F0DD4146204621AA04F07BFF0028C1
:1041A0007FF4AEACDDE92221ABF1100BBBF1100FB7
:1041B0004FF010030DF1B80AE4DC0C4601325C4408
:1041C000072ACDE92224CAF80070CAF804B000F327
:1041D000C4810AF1080AF7E441460D9821AA04F0C7
:1041E00059FF00283FF417AD8AE4129B012B40F3DE
:1041F0006A810123229D01341D44072DCAF8006005
:104200002394CAF80430229500F3C8810AF1080A01
:10421000149B0135159A1C44072DCAE90023CDE9EA
:10422000225400F3CD810AF1080A0022DDE91001D1
:10423000002306F08FFC002840F06381129B0135BB
:10424000013B01361C44072DCAF800602295CAF8CC
:104250000430239400F348810AF1080A169B0135C3
:104260001C44CAF80430072D1DABCDE92254CAF80E
:1042700000307FF7BAAC41460D9821AA04F00AFF3E
:1042800000287FF43DAC239C0DF1B80AAFE4102F59
:1042900040F39E84DDE922211793102453460846FB
:1042A000CA46B1464646B8462F460D9D0BE000BFB4
:1042B0000CB0080020B00800A8F11008B8F1100FE9
:1042C00003F1080318DD0132BB491030072AC3E9A6
:1042D0000014CDE92220EFDD3146284621AA04F062
:1042E000D9FE00287FF40BACDDE92220A8F11008EC
:1042F000B8F1100F2EABE6DC01463D464746B0460E
:104300004E46D1469A46179B7C180132AA49072A85
:10431000CDE92224CAF80470CAF8001000F36682BE
:104320000AF1080A1FE441460D9821AA04F0B2FEE2
:1043300000287FF4E5AB239C0DF1B80A38E4414630
:104340000D9821AA179304F0A5FE00287FF4D8AB9E
:10435000239C179B0DF1B80A19E4102D40F35484E7
:104360001026229B0D9F04E0103D102D0AF1080A33
:1043700017DD0133904A1034072BCAE90026CDE936
:104380002234F1DD4146384621AA04F083FE00289C
:104390007FF4B6ABDDE92234103D102D0DF1B80AE3
:1043A000E7DC0133844A2C44072BCDE92234CAF8D8
:1043B0000450CAF800207FF723AC41460D9821AA8B
:1043C00004F068FE00287FF49BAB239C18E41B9943
:1043D000002940F3D781129F0F9B9F42A8BF1F4621
:1043E000002F0BDD229B3C440133072BCAE90067F9
:1043F0002394229300F3CB830AF1080A0F9D002F28
:10440000A8BFED1B002D00F35B811B9D129B9D42FD
:1044100080F23A81149B159A1C44CAE90023229B1E
:1044200023940133072B229300F326830AF1080A11
:10443000129B0F9A5D1B9F1AAF42A8BF2F46002FF9
:104440000EDD229B164401333C44072BCAF8006062
:10445000CAF804702394229300F3A5830AF1080A92
:10446000002FA8BFED1B002D7FF7C1AB102D40F32F
:10447000D0811026229B514FDDF834B005E00AF1BF
:10448000080A103D102D40F3C68101331034072B6C
:10449000CAE90076CDE92234F1DD4146584621AA29
:1044A00004F0F8FD00287FF42BABDDE922340DF198
:1044B000B80AE6E7099B002B40F0528300232EAE9A
:1044C00009930C938AE5079BDA073FF592AE012327
:1044D000229D01341D44072DCAF800602394CAF8B8
:1044E000043022957FF7B8AE41460D9821AA04F01A
:1044F000D1FD00287FF404ABDDE922540DF1B80AA8
:10450000ACE6129B5E1E002E7FF7A8AE102E40F385
:104510000284CDF824904FF0100BC146274FDDF8F0
:10452000348005E00AF1080A103E102E40F3E381C2
:1045300001351034072DCAE9007BCDE92254F1DDA5
:104540004946404621AA04F0A5FD002840F0828398
:10455000DDE922540DF1B80AE6E741460D9821AA9B
:1045600004F098FD00287FF4CBAA239C0DF1B80A33
:10457000FFF72ABB0E9B53F8040B0E9374E4C1178C
:104580000B46002BBFF6CDAB2D2440424FF001036C
:1045900061EB41018DF86740FFF778BA41460D980D
:1045A00021AA04F077FD00287FF4AAAADDE92254AD
:1045B0000DF1B80A2CE600BF10B0080020B00800CA
:1045C00041460D9821AA04F065FD00287FF498AAC1
:1045D000DDE922540DF1B80A27E62EAEFEE4DDE94E
:1045E000100102460B4606F0E7FA002840F07183FE
:1045F000099B013300F0E68225F02003472B0C9342
:1046000000F09E80DDE910124BF48073171E0793B3
:10461000C0F23F82109B089300231793662D00F091
:104620007981462D00F0768102210C9B0091452B6B
:1046300008BF099B1FA918BF099C04911CA908BFAA
:104640005C1C03911BA93B46089A0D9801940291AA
:1046500001F06CFB672D064640F08F821BF0010FC6
:1046600000F0A08134446CE10123202099F800502F
:10467000FFF777B90E9B0A9853F8041BC217C1E9DC
:1046800000020E93FFF74BB9079BD9073FF5C2AE67
:10469000129B0F9A5D1B9F1AAF42A8BF2F46DFE601
:1046A00040210D9803F00EF9C8F80000C8F810007A
:1046B000002800F04D834023C8F81430FFF720B9DC
:1046C000102D40F32A83B44F09963A464FF0100B51
:1046D0004746229B90460D9E05E00AF1080A103DD0
:1046E000102D40F3B38101331034072BCAE9008B3E
:1046F000CDE92234F1DD3946304621AA04F0CAFC66
:10470000002840F0C782DDE922340DF1B80AE6E75F
:1047100030460E940997CDF81CB0FFF777F820EAE1
:10472000E0739DF867400C900F970893FFF7C4BAA9
:104730000E9B0A9953F8042B11600E93FFF7EFB804
:10474000099B002B08BF012309935BE72EAE079559
:104750000A22002307460D4606F06CFA3032002389
:1047600006F8012D384629460A2206F063FA0A2F78
:1047700075F10003ECD22EAB9B1B079D0C93CDF87B
:104780001CB02BE40123CAF80430229B834A013376
:104790000134072B23942293CAF8002000F3808170
:1047A0000AF1080A002972D1079B129A03F001034B
:1047B00013433FF41CAA149B15991A19CAE9001354
:1047C000229B23920133072B229300F37C810AF171
:1047D000080A129901338C18072BCDE92234CAF844
:1047E0000060CAF804107FF700AA44E541460D981E
:1047F00021AA179304F04EFC00287FF481A9239C82
:10480000179B0DF1B80AFFF7AEB99DF86740FFF7A7
:1048100097BA229B604F01332C44072BCAF80070D3
:10482000CAF80450CDE922347FF7DFA923E54146D9
:104830000D9821AA04F02EFC00287FF461A9239C86
:104840000DF1B80AFFF7EFBB41460D9821AA04F01D
:1048500021FC00287FF454A9239C0DF1B80AFFF72E
:10486000ABB941460D9821AA04F014FC00287FF44E
:1048700047A9239C0DF1B80AFFF7EBBB062B28BF15
:104880000623474E0C930E940893FFF755B9149BDB
:1048900015981A19CAE90003229B23920133072BAA
:1048A000229300F310810AF1080A002991DA4D429F
:1048B000103180F2D6811024374FDDF834B005E096
:1048C0000AF1080A103D102D40F3CC81013310325B
:1048D000072BCAE90074CDE92232F1DD4146584682
:1048E00021AA04F0D7FB00287FF40AA9DDE92232CF
:1048F0000DF1B80AE6E7C846DDF8249001353444E6
:10490000072DCDE92254CAF80070CAF804607FF779
:10491000A3ACE9E50321DDE9082400911FA9049176
:104920001CA903911BA93B4601940D98029101F02B
:10493000FDF9064633780419302B00F0AE811B9B3D
:104940001C44394600220023089806F003F9002889
:1049500040F0B3801F9BA34206D230215A1C1F9205
:1049600019701F9B9C42F9D89B1B12930C9B472BE1
:104970001FD0662D40F0F4811B9B0BF0010B002B28
:104980000F9340F3F18009995BEA010240F09381B3
:104990000F9B08930C9323E020B008000CB0080094
:1049A00004B008001F9B9B1B12930C9B472B40F0ED
:1049B000D7811B9BD91C0F931DDB099A93421ADCEC
:1049C0000F9B129A9342C0F22E811BF0010F1EBF63
:1049D0000F9B149A9B180C93672523EAE3730893A3
:1049E000179B002B00F0CD802D238DF8673000231E
:1049F0000993FFF764B9023D0F9A8DF87450531E66
:104A0000002BA8BF2B221B93BCBFC2F101032D2298
:104A1000092B8DF8752070DC30338DF8773030231A
:104A20008DF8763004231693129A169B012A1344AC
:104A30000C9340F348810C9B149A134400220C936E
:104A40000F92CAE7229ABE4FFFF7B8BB4246B8465C
:104A50001746099E01332C44072BCDE92234CAF8AE
:104A60000070CAF804503CDC0AF1080ACDE42D2499
:104A70008DF86740FFF712B941460D9821AA04F05E
:104A800009FB00287FF43CA81B9D239C0DF1B80A6C
:104A9000CEE414462D220891179204F10047BDE59B
:104AA00041460D9821AA04F0F5FA00287FF428A8C1
:104AB0001B99239C0DF1B80A74E6234654E78DF840
:104AC0006700FFF72DB841460D9821AA04F0E2FADD
:104AD00000287FF415A8DDE922321B990DF1B80AF0
:104AE000E3E641460D9821AA04F0D4FA00287FF4A9
:104AF00007A8239C0DF1B80A87E40DF1830C6246E8
:104B0000904F1C46104687FB0312D917C1EBA20138
:104B100001EB8102A3EB42023032632C00F8012C3E
:104B20000B4600F1FF32ECDC3033D9B2831E9C45DA
:104B300002F8011C40F2008113460DF1760201E0FB
:104B400013F8011B9C4502F8011BF9D10DF18503F7
:104B50000DF176021B1A13441DAA9B1A169363E7E4
:104B6000DDF81CB0FFF7F1B8099A5BEA020340F0E8
:104B7000CA80012308930C9332E7472D3FF46EADB2
:104B800070E5179B9DF867400993FFF795B841467C
:104B90000D9821AA04F07EFA00287EF4B1AF239C80
:104BA0000DF1B80A2AE441460D9821AA04F072FAE0
:104BB00000287EF4A5AF1B9D129B239C0DF1B80A23
:104BC0005D1B4DE40623099325F020030C9319E5A2
:104BD000DDE92221FFF798BB099B0E94CDF81CB0AC
:104BE0009DF8674008930C9309900F90FFF764B805
:104BF0008DF86700FFF751B98DF86700FFF7A7B987
:104C00008DF86700FFF7E2B8229BFFF7CABB8DF86B
:104C10006700FFF776B88DF86700FFF712B88DF8D8
:104C20006700FFF714B9149A129B13440F9A0C9360
:104C3000002A3FF7D1AE0F9B0C9AC3F101031A442F
:104C400022EAE27367250C920893C9E600220992D2
:104C5000FEF789BEC846FEF753BF229A384FFFF7CA
:104C600072BA374F01332A44072BCDE92232CAF8F2
:104C70000070CAF804507FF7AAAD41460D9821AAEA
:104C800004F008FA00287EF43BAFDDE922320DF192
:104C9000B80A9EE5B846FEF733BF39460022002326
:104CA000089805F057FF00287FF449AE099BC3F12F
:104CB00001031B9344E6149A1344194421EAE17357
:104CC0000C9108938CE61BF001020F927FF4B3AEB7
:104CD00083E6119B0322002BB8BF2D244FF0000167
:104CE0002BF08003184E0793184BACBF9DF867401C
:104CF0008DF86740CDE90821472DC8BF1E460C92AC
:104D00000F91FEF7D9BF149B01331A4422EAE273D4
:104D10000C92089364E60A4FF0E5229B084F99E64F
:104D20000E9A99F80150894652F8041B0E9241EAF6
:104D3000E1720992FEF715BE0223169374E600BFD6
:104D400020B0080067666666D4AF0800D8AF0800D8
:104D50004FF0FF320C230A920D9A1360FEF7D9BE72
:104D60001B9B0F9348E600BF2DE9F84F4B6E904612
:104D70009C042DD59368126843B38B46064602F116
:104D8000080959E9025A5FEA9A0715D00024043D40
:104D900001E0A7420ED05A46304655F8041F02F0F3
:104DA00053F9431C04F10104F3D10023C8E9013392
:104DB000BDE8F88FD8F808302AF0030AA3EB0A03FD
:104DC000C8F8083009F10809002BDAD10020ECE717
:104DD00002F0BCFA0023C8E90133BDE8F88F00BF38
:104DE00010B494680CB110BCBEE72046546010BCEF
:104DF000704700BF2DE9F04FABB01C468846174600
:104E00008346069318B1836B002B00F02482B8F917
:104E10000C1088048AB20AD4D8F8643041F40052E5
:104E200023F40053A8F80C20C8F8643092B213079A
:104E300040F1A480D8F81030002B00F09F8002F0E1
:104E40001A020A2A00F0A8801AAB0D930023CDE9BC
:104E50000E330DF16809099305933B78002B00F0A0
:104E60000F813C4604E014F8013F002B00F0EA807B
:104E7000252BF8D1E51B40F0E7802378002B00F0CC
:104E8000FF804FF0000200218DF82F204FF0FF32FD
:104E900008468A466378671C029204910137A3F1A1
:104EA0002002582A00F2F980DFE812F02C02F70005
:104EB000F7003102F700F700F700F700F700F700FE
:104EC000E3012802F700ED01F101F7002402590087
:104ED000590059005900590059005900590059000A
:104EE000F700F700F700F700F700F700F700F7000A
:104EF000F700F7000B02F700F700F700F700F700E4
:104F0000F700F700F700F700F7009500F700F7004B
:104F1000F700F700F7008400F700F7004302F700FE
:104F2000F700F700F700F700F700F700F700F700C9
:104F3000F7003502A601F700F700F7008402A6018A
:104F4000F700F7007A02F70064029700C402C0027B
:104F5000F7009F02F7008600F700F70088020024A0
:104F6000A3F1300217F8013B04EB840402EB440484
:104F7000A3F13002092AF5D9049490E74146584636
:104F800000F096FD002840F03785B8F80C2002F0BC
:104F90001A020A2A7FF458AFB8F90E30002BFFF638
:104FA00053AF23463A46414658462BB0BDE8F04F32
:104FB00000F048BD4AF0100A1AF0200100F00E81FE
:104FC000069B073323F007031A4652F8080B59686B
:104FD000069201230FE04AF0100A1AF0200100F0B7
:104FE000F080069B073323F007031A465968002315
:104FF00052F8080B06924FF000028DF82F20002285
:105000000792029A541C00F028822AF0800401942E
:1050100050EA010440F01F82002A40F08F84002BE8
:1050200040F00B841AF00103039340F033841AAC70
:10503000DDE902639E42B8BF1E46079B002B3ED0AF
:1050400001363CE0E51B1BD00E9B0F9A01332A442E
:10505000072BC9E900750F920E9305DC09F10809C9
:10506000059B2B44059308E7002A00F0CD834146B9
:1050700058460DAAFFF778FE30B90DF16809EFE741
:105080000F9B002B40F08284B8F80C305B0600F1D7
:10509000B38405982BB0BDE8F08F002940F07284EE
:1050A000002BEDD001268DF840304FF0000310ACFE
:1050B0008DF82F3003960023CDF804A00293019BB6
:1050C00013F002030793019B18BF023613F0840309
:1050D000089304D1049B9D1B002D00F3D782DDE9CA
:1050E0000E0200F1010C9DF82F3083B10120013236
:1050F0000DF12F03BCF1070FCDE90EC2C9E9003055
:1051000000F3A482604609F108090CF1010C079B29
:10511000E3B102230232C9F80430BCF1070F0CAB33
:10512000CDE90EC2C9F8003040F3AA82002A00F08F
:105130006583414658460DAAFFF716FE0028A3D105
:10514000DDE90E020DF1680900F1010C089B802BCE
:1051500000F0C481DDE902315D1A002D00F31982EF
:10516000039BBCF1070F1A44CDE90EC2C9F80040F9
:10517000C9F8043040F3AF81002A00F0D1824146E3
:1051800058460DAAFFF7F0FD00287FF47DAF0F9A77
:105190000DF16809019B590704D5049B9C1B002C49
:1051A00000F3C882DDE90413B142ACBF5B189B1960
:1051B0000593002A40F0358200230DF168090E9313
:1051C0004BE61AF0100349D11AF0400146D0069A76
:1051D000194652F8040B069280B20CE71AF010033D
:1051E000069A41D11AF040013ED052F8040B1946FC
:1051F0000692012380B2FEE6002940F0EF831AF008
:10520000200F069B66D0073323F007031A465B681E
:1052100052F8080B19460692002BC0F20383029B3A
:10522000013300F087839DF82F302AF0800A07931E
:1052300050EA010300F051830A2871F1000380F065
:105240000E83012330308DF86700CDF804A003935E
:105250000DF16704ECE601F087FED8E5069B53F8F4
:10526000040B06930B46C6E652F8040B0123069284
:10527000C1E6069B53F8042B002A0492069344DAF5
:10528000049B5B4204933B784AF0040A06E63C46E2
:1052900014F8013B2A2B00F0B783A3F13002092A4E
:1052A000274698BF002400F2898317F8013B04EBDE
:1052B000840402EB4404A3F13002092AF5D90294D4
:1052C000EDE5002940F084834AF0100A1AF0200F1F
:1052D000069B98D153F8040B1AF0100F069340F078
:1052E0009C821AF0400F00F0988240F3C0310B46C8
:1052F00000B291E73B784AF0800ACFE501212B20EC
:105300003B78CBE5002800F0DC823B78C6E53B78B3
:105310004AF0010AC2E54FF000020126069B8DF813
:105320002F2053F8042B10AC8DF8402006930396E1
:10533000C1E6002940F04983BE4A1AF020010992D3
:1053400044D0069A073222F00702516852F8080B3F
:1053500006921AF0010F0BD050EA010208D08DF826
:10536000313030234AF0020A8DF83030022342E611
:10537000022340E6002940F02E831AF0200F40F06F
:1053800096821AF0100F40F0CD821AF0400F00F014
:10539000C982069B059953F8042B118006935CE59E
:1053A0003B786C2B03BF7B784AF0200A01374AF028
:1053B000100A73E53B784AF0400A6FE5002940F097
:1053C00001839D4A1AF020010992BAD11AF0100205
:1053D00040F01E821AF0400100F01A82069C11462D
:1053E00054F8040B069480B2B3E74FF00003069D17
:1053F0008DF82F3055F8044B002C00F0A582029B4D
:105400005E1C00F073821A460021204602F020FD47
:10541000002800F0C982031B0393002302939DF828
:105420002F300695CDF804A0079301E63B784AF0AB
:10543000200A33E530228DF830207822069B8DF843
:10544000312053F8040B7C4A0693002102234AF0D2
:10545000020A0992CFE5DDF804A0012B3FF4ECAE7F
:10546000022B1AAC12D1099A00F00F03D35C000989
:1054700040EA0170090904F8013D50EA0103F3D143
:105480001AAB1B1BCDF804A00393D1E500F0070372
:10549000C00840EA4170C908303350EA010522468D
:1054A00004F8013DF2D11AF0010FE9D0302BE7D01A
:1054B0003023023A04F8013C1AAB9B1A1446CDF88B
:1054C00004A00393B4E50123039A1A940E931B924C
:1054D0000F920DF1680909F108095BE6049B9D1B19
:1054E000002D7FF737AE102D40F38B82DFF84CA1F3
:1054F000014650461023A246044607E001F1020C83
:10550000014609F10809103D102D1DDD481C10321F
:105510000728C9E90043CDE90E02EFDD002A00F0BB
:105520008F80414658460DAAFFF71EFC00287FF4E5
:10553000ABADDDE90E12103D102D4FF010030DF153
:10554000680901F1010CE1DC234654469A462A44DD
:10555000BCF1070FCDE90EC2C9F800A0C9F804508C
:1055600040F39F81002A00F0FB81414658460DAA76
:10557000FFF7FAFB00287FF487ADDDE90231DDE9B2
:105580000E025D1A002D0DF1680900F1010C7FF784
:10559000E7AD102D40F3E181DFF8A0A001465046B1
:1055A0001023A246044607E001F1020C014609F16E
:1055B0000809103D102D1BDD481C10320728C9E9D1
:1055C0000043CDE90E02EFDD2AB3414658460DAA4D
:1055D000FFF7CAFB00287FF457ADDDE90E12103D3E
:1055E000102D4FF010030DF1680901F1010CE3DCFF
:1055F000234654469A462A44BCF1070FCDE90EC211
:10560000C9F800A0C9F8045000F3E38009F10809C3
:105610000CF1010CA4E54FF0010C11460DF16809E5
:10562000C7E7414658460DAAFFF79EFB00283FF406
:10563000C3AD29E5F0AF0800DCAF080040B00800BA
:105640004FF0010C11460DF168095CE7002A00F0EB
:10565000D280414658460DAAFFF786FB00287FF40A
:1056600013ADDDE90E020DF1680900F1010C4EE504
:1056700002224FF0010C0CAB1A930DF168091B923A
:10568000604609F1080900F1010C5FE5102D40F3B7
:10569000A881DDE90EC2DFF804A31023504661465D
:1056A000A246044607E001F1020C014609F108098F
:1056B000103D102D1BDD481C10320728C9E900439E
:1056C000CDE90E02EFDD2AB3414658460DAAFFF799
:1056D0004BFB00287FF4D8ACDDE90E12103D102DF5
:1056E0004FF010030DF1680901F1010CE3DC2346D2
:1056F000604654469A462A440728CDE90E02C9F866
:1057000000A0C9F8045000F39D8009F1080900F1D8
:10571000010CE8E411464FF0010C0DF16809C7E7F0
:10572000019B0E9258074CD5049B9C1B002C48DD16
:105730000DF16809102C40F35A81DFF860A21025A2
:1057400053460E99B2461E4606E0881C194609F1DA
:105750000809103C102C19DD4B1C1032072BC9E92D
:105760000065CDE90E32F0DD32B3414658460DAA50
:10577000FFF7FAFA00287FF487ACDDE90E12103C3F
:10578000102C0DF1680901F10100E5DC33465646A5
:105790009A4622440728C9E900A4CDE90E027FF702
:1057A00001AD72B1414658460DAAFFF7DDFA002857
:1057B0007FF46AAC0F9AF5E4012011460DF16809F7
:1057C000C7E7DDE90423B242ACBF9B189B190593E0
:1057D000F2E4002A3FF477AE414658460DAAFFF79F
:1057E000C3FA00287FF450AC0E9B0F9A0DF16809A4
:1057F00003F1010CB4E4079B002B67D14FF0010CBF
:1058000010460DF16809A1E40E920DF1680927E434
:10581000069A52F8040B06929BE5C1170B46002B23
:10582000BFF6FDAC2D2240424FF0010361EB410178
:105830008DF82F200792FFF7E4BB029B1AAC03936D
:10584000FFF7F6BB002A5FD0414658460DAAFFF786
:105850008BFA00287FF418AC0DF168093FE41AAC0C
:105860000A22002306460D4605F0E4F930320023F3
:1058700004F8012D304629460A2205F0DBF90A2EEC
:1058800075F10003ECD21AAB1B1BCDF804A00393F7
:10589000FFF7CEBB30230DF167048DF86730FFF7BB
:1058A000C7BB604609F108090CF1010C52E4DDE9BF
:1058B000050353F8041BC217C1E900020693FFF762
:1058C000CCBA012120203B78FFF7E8BA02220CABCA
:1058D0001A930DF168091B92D3E6029B002B7FF40B
:1058E000B0ACCDF804A00393FFF7A1BB204606950A
:1058F000CDF804A0FDF78AFF002302939DF82F3016
:1059000003900793FFF794BB9DF82F307BB30123DF
:105910000DF12F021A929C461A460DF168091B934D
:10592000FFF7F0BB069B059953F8042B1160069313
:10593000FFF793BA9DF82F3007937DE4012BDDF834
:1059400004A07FF48DAD7CE4029E154C062E28BF8A
:10595000062606950396FFF7AEBBDFF848A04AE699
:105960004FF0010C10460DF16809FFF7F3BB079BE0
:10597000002B7FF47DAE10464FF0010C0DF168094D
:10598000FFF7E8BB8DF82F00FFF78ABB414658466A
:105990000DAAFFF7E9F9FFF777BB00BF30B00800A9
:1059A00004B0080040B00800029B069503939DF8E0
:1059B0002F30CDE901A00793FFF73ABB00220292F6
:1059C000FFF76DBA8DF82F00FBE48DF82F00B3E4DC
:1059D0008DF82F0078E48DF82F00CEE48DF82F009D
:1059E0000DE40E980F9ADFF838A0013083E60E9888
:1059F000DFF82CA00130CCE64FF0FF330593FFF722
:105A000048BBDFF820A0A2E5069A7B78274652F82B
:105A1000044B069244EAE4720292FFF73FBA00BFD9
:105A200030B0080040B008008C4600B586461346EA
:105A3000034A714610685DF804EB6246FFF7DAB975
:105A4000B003002070B50024ADF58D6D4FF4806576
:105A500006940C4602950595A5891AA925F002051C
:105A6000ADF80C50656E00911995E5890491ADF87B
:105A70000E50E56969460795656A06460995FFF780
:105A8000B9F9051E07DB6946304601F045F90028E3
:105A900018BF4FF0FF35BDF80C305B0603D5A38966
:105AA00043F04003A38128460DF58D6D70BD00BF06
:105AB00038B5334B05461B680C460BB19A6B12B3D5
:105AC000B4F90C3018079AB225D5216900292DD0D8
:105AD00012F0010007D000256069A5604042A06176
